{
  "contractName": "SolnSquareVerifier",
  "abi": [
    {
      "inputs": [
        {
          "internalType": "address",
          "name": "owner",
          "type": "address"
        }
      ],
      "payable": false,
      "stateMutability": "nonpayable",
      "type": "constructor"
    },
    {
      "anonymous": false,
      "inputs": [
        {
          "indexed": true,
          "internalType": "address",
          "name": "owner",
          "type": "address"
        },
        {
          "indexed": true,
          "internalType": "address",
          "name": "approved",
          "type": "address"
        },
        {
          "indexed": true,
          "internalType": "uint256",
          "name": "tokenId",
          "type": "uint256"
        }
      ],
      "name": "Approval",
      "type": "event"
    },
    {
      "anonymous": false,
      "inputs": [
        {
          "indexed": true,
          "internalType": "address",
          "name": "owner",
          "type": "address"
        },
        {
          "indexed": true,
          "internalType": "address",
          "name": "operator",
          "type": "address"
        },
        {
          "indexed": false,
          "internalType": "bool",
          "name": "approved",
          "type": "bool"
        }
      ],
      "name": "ApprovalForAll",
      "type": "event"
    },
    {
      "anonymous": false,
      "inputs": [
        {
          "indexed": false,
          "internalType": "address",
          "name": "owner",
          "type": "address"
        }
      ],
      "name": "Paused",
      "type": "event"
    },
    {
      "anonymous": false,
      "inputs": [
        {
          "indexed": false,
          "internalType": "uint256",
          "name": "index",
          "type": "uint256"
        },
        {
          "indexed": false,
          "internalType": "address",
          "name": "account",
          "type": "address"
        }
      ],
      "name": "SolutionAdded",
      "type": "event"
    },
    {
      "anonymous": false,
      "inputs": [
        {
          "indexed": true,
          "internalType": "address",
          "name": "from",
          "type": "address"
        },
        {
          "indexed": true,
          "internalType": "address",
          "name": "to",
          "type": "address"
        },
        {
          "indexed": true,
          "internalType": "uint256",
          "name": "tokenId",
          "type": "uint256"
        }
      ],
      "name": "Transfer",
      "type": "event"
    },
    {
      "anonymous": false,
      "inputs": [
        {
          "indexed": false,
          "internalType": "address",
          "name": "newOwner",
          "type": "address"
        }
      ],
      "name": "ownerShip",
      "type": "event"
    },
    {
      "anonymous": false,
      "inputs": [
        {
          "indexed": false,
          "internalType": "address",
          "name": "owner",
          "type": "address"
        }
      ],
      "name": "unpaused",
      "type": "event"
    },
    {
      "constant": false,
      "inputs": [
        {
          "internalType": "bytes32",
          "name": "_myid",
          "type": "bytes32"
        },
        {
          "internalType": "string",
          "name": "_result",
          "type": "string"
        }
      ],
      "name": "__callback",
      "outputs": [],
      "payable": false,
      "stateMutability": "nonpayable",
      "type": "function"
    },
    {
      "constant": false,
      "inputs": [
        {
          "internalType": "bytes32",
          "name": "_myid",
          "type": "bytes32"
        },
        {
          "internalType": "string",
          "name": "_result",
          "type": "string"
        },
        {
          "internalType": "bytes",
          "name": "_proof",
          "type": "bytes"
        }
      ],
      "name": "__callback",
      "outputs": [],
      "payable": false,
      "stateMutability": "nonpayable",
      "type": "function"
    },
    {
      "constant": false,
      "inputs": [
        {
          "internalType": "address",
          "name": "to",
          "type": "address"
        },
        {
          "internalType": "uint256",
          "name": "tokenId",
          "type": "uint256"
        }
      ],
      "name": "approve",
      "outputs": [],
      "payable": false,
      "stateMutability": "nonpayable",
      "type": "function"
    },
    {
      "constant": true,
      "inputs": [
        {
          "internalType": "address",
          "name": "owner",
          "type": "address"
        }
      ],
      "name": "balanceOf",
      "outputs": [
        {
          "internalType": "uint256",
          "name": "",
          "type": "uint256"
        }
      ],
      "payable": false,
      "stateMutability": "view",
      "type": "function"
    },
    {
      "constant": false,
      "inputs": [
        {
          "internalType": "address",
          "name": "owner",
          "type": "address"
        }
      ],
      "name": "contractowner",
      "outputs": [],
      "payable": false,
      "stateMutability": "nonpayable",
      "type": "function"
    },
    {
      "constant": true,
      "inputs": [
        {
          "internalType": "uint256",
          "name": "tokenId",
          "type": "uint256"
        }
      ],
      "name": "getApproved",
      "outputs": [
        {
          "internalType": "address",
          "name": "",
          "type": "address"
        }
      ],
      "payable": false,
      "stateMutability": "view",
      "type": "function"
    },
    {
      "constant": true,
      "inputs": [],
      "name": "getBaseTokenURI",
      "outputs": [
        {
          "internalType": "string",
          "name": "",
          "type": "string"
        }
      ],
      "payable": false,
      "stateMutability": "view",
      "type": "function"
    },
    {
      "constant": true,
      "inputs": [
        {
          "internalType": "address",
          "name": "owner",
          "type": "address"
        },
        {
          "internalType": "address",
          "name": "operator",
          "type": "address"
        }
      ],
      "name": "isApprovedForAll",
      "outputs": [
        {
          "internalType": "bool",
          "name": "",
          "type": "bool"
        }
      ],
      "payable": false,
      "stateMutability": "view",
      "type": "function"
    },
    {
      "constant": false,
      "inputs": [
        {
          "internalType": "address",
          "name": "to",
          "type": "address"
        },
        {
          "internalType": "uint256",
          "name": "tokenId",
          "type": "uint256"
        },
        {
          "internalType": "string",
          "name": "tokenURI",
          "type": "string"
        }
      ],
      "name": "mint",
      "outputs": [
        {
          "internalType": "bool",
          "name": "",
          "type": "bool"
        }
      ],
      "payable": false,
      "stateMutability": "nonpayable",
      "type": "function"
    },
    {
      "constant": true,
      "inputs": [
        {
          "internalType": "uint256",
          "name": "tokenId",
          "type": "uint256"
        }
      ],
      "name": "ownerOf",
      "outputs": [
        {
          "internalType": "address",
          "name": "",
          "type": "address"
        }
      ],
      "payable": false,
      "stateMutability": "view",
      "type": "function"
    },
    {
      "constant": false,
      "inputs": [
        {
          "internalType": "address",
          "name": "from",
          "type": "address"
        },
        {
          "internalType": "address",
          "name": "to",
          "type": "address"
        },
        {
          "internalType": "uint256",
          "name": "tokenId",
          "type": "uint256"
        }
      ],
      "name": "safeTransferFrom",
      "outputs": [],
      "payable": false,
      "stateMutability": "nonpayable",
      "type": "function"
    },
    {
      "constant": false,
      "inputs": [
        {
          "internalType": "address",
          "name": "from",
          "type": "address"
        },
        {
          "internalType": "address",
          "name": "to",
          "type": "address"
        },
        {
          "internalType": "uint256",
          "name": "tokenId",
          "type": "uint256"
        },
        {
          "internalType": "bytes",
          "name": "_data",
          "type": "bytes"
        }
      ],
      "name": "safeTransferFrom",
      "outputs": [],
      "payable": false,
      "stateMutability": "nonpayable",
      "type": "function"
    },
    {
      "constant": false,
      "inputs": [
        {
          "internalType": "address",
          "name": "to",
          "type": "address"
        },
        {
          "internalType": "bool",
          "name": "approved",
          "type": "bool"
        }
      ],
      "name": "setApprovalForAll",
      "outputs": [],
      "payable": false,
      "stateMutability": "nonpayable",
      "type": "function"
    },
    {
      "constant": false,
      "inputs": [],
      "name": "setter",
      "outputs": [],
      "payable": false,
      "stateMutability": "nonpayable",
      "type": "function"
    },
    {
      "constant": true,
      "inputs": [
        {
          "internalType": "bytes4",
          "name": "interfaceId",
          "type": "bytes4"
        }
      ],
      "name": "supportsInterface",
      "outputs": [
        {
          "internalType": "bool",
          "name": "",
          "type": "bool"
        }
      ],
      "payable": false,
      "stateMutability": "view",
      "type": "function"
    },
    {
      "constant": true,
      "inputs": [
        {
          "internalType": "uint256",
          "name": "index",
          "type": "uint256"
        }
      ],
      "name": "tokenByIndex",
      "outputs": [
        {
          "internalType": "uint256",
          "name": "",
          "type": "uint256"
        }
      ],
      "payable": false,
      "stateMutability": "view",
      "type": "function"
    },
    {
      "constant": true,
      "inputs": [
        {
          "internalType": "address",
          "name": "owner",
          "type": "address"
        },
        {
          "internalType": "uint256",
          "name": "index",
          "type": "uint256"
        }
      ],
      "name": "tokenOfOwnerByIndex",
      "outputs": [
        {
          "internalType": "uint256",
          "name": "",
          "type": "uint256"
        }
      ],
      "payable": false,
      "stateMutability": "view",
      "type": "function"
    },
    {
      "constant": true,
      "inputs": [
        {
          "internalType": "uint256",
          "name": "tokenId",
          "type": "uint256"
        }
      ],
      "name": "tokenURI",
      "outputs": [
        {
          "internalType": "string",
          "name": "",
          "type": "string"
        }
      ],
      "payable": false,
      "stateMutability": "view",
      "type": "function"
    },
    {
      "constant": false,
      "inputs": [
        {
          "internalType": "string",
          "name": "name",
          "type": "string"
        },
        {
          "internalType": "string",
          "name": "symbol",
          "type": "string"
        },
        {
          "internalType": "string",
          "name": "baseTokenURI",
          "type": "string"
        }
      ],
      "name": "tokendetails",
      "outputs": [],
      "payable": false,
      "stateMutability": "nonpayable",
      "type": "function"
    },
    {
      "constant": true,
      "inputs": [],
      "name": "totalSupply",
      "outputs": [
        {
          "internalType": "uint256",
          "name": "",
          "type": "uint256"
        }
      ],
      "payable": false,
      "stateMutability": "view",
      "type": "function"
    },
    {
      "constant": false,
      "inputs": [
        {
          "internalType": "address",
          "name": "from",
          "type": "address"
        },
        {
          "internalType": "address",
          "name": "to",
          "type": "address"
        },
        {
          "internalType": "uint256",
          "name": "tokenId",
          "type": "uint256"
        }
      ],
      "name": "transferFrom",
      "outputs": [],
      "payable": false,
      "stateMutability": "nonpayable",
      "type": "function"
    },
    {
      "constant": false,
      "inputs": [
        {
          "internalType": "address",
          "name": "newOwner",
          "type": "address"
        }
      ],
      "name": "transferOwnership",
      "outputs": [],
      "payable": false,
      "stateMutability": "nonpayable",
      "type": "function"
    },
    {
      "constant": false,
      "inputs": [
        {
          "internalType": "bytes32",
          "name": "token",
          "type": "bytes32"
        },
        {
          "internalType": "uint256",
          "name": "_id",
          "type": "uint256"
        },
        {
          "internalType": "address",
          "name": "_ad",
          "type": "address"
        }
      ],
      "name": "addSolution",
      "outputs": [],
      "payable": false,
      "stateMutability": "nonpayable",
      "type": "function"
    },
    {
      "constant": false,
      "inputs": [
        {
          "internalType": "address",
          "name": "account",
          "type": "address"
        },
        {
          "internalType": "uint256",
          "name": "index",
          "type": "uint256"
        },
        {
          "components": [
            {
              "components": [
                {
                  "internalType": "uint256",
                  "name": "X",
                  "type": "uint256"
                },
                {
                  "internalType": "uint256",
                  "name": "Y",
                  "type": "uint256"
                }
              ],
              "internalType": "struct Pairing.G1Point",
              "name": "a",
              "type": "tuple"
            },
            {
              "components": [
                {
                  "internalType": "uint256[2]",
                  "name": "X",
                  "type": "uint256[2]"
                },
                {
                  "internalType": "uint256[2]",
                  "name": "Y",
                  "type": "uint256[2]"
                }
              ],
              "internalType": "struct Pairing.G2Point",
              "name": "b",
              "type": "tuple"
            },
            {
              "components": [
                {
                  "internalType": "uint256",
                  "name": "X",
                  "type": "uint256"
                },
                {
                  "internalType": "uint256",
                  "name": "Y",
                  "type": "uint256"
                }
              ],
              "internalType": "struct Pairing.G1Point",
              "name": "c",
              "type": "tuple"
            }
          ],
          "internalType": "struct Verifier.Proof",
          "name": "proof",
          "type": "tuple"
        },
        {
          "internalType": "uint256[2]",
          "name": "input",
          "type": "uint256[2]"
        }
      ],
      "name": "mintToken",
      "outputs": [
        {
          "internalType": "bool",
          "name": "",
          "type": "bool"
        }
      ],
      "payable": false,
      "stateMutability": "nonpayable",
      "type": "function"
    }
  ],
  "bytecode": "0x60806040523480156200001157600080fd5b5060405162003bab38038062003bab8339818101604052620000379190810190620003e5565b6040518060400160405280600481526020017f4e45524f000000000000000000000000000000000000000000000000000000008152506040518060400160405280600381526020017f4e524f00000000000000000000000000000000000000000000000000000000008152506040518060600160405280603f815260200162003b6c603f9139336000806101000a81548173ffffffffffffffffffffffffffffffffffffffff021916908373ffffffffffffffffffffffffffffffffffffffff1602179055507f9e38ac15fb6f429cb4c1d68a79943e344c4ce37b43debdea3555daa570f53610336040516200012e919062000422565b60405180910390a160008060146101000a81548160ff0219169083151502179055507fd0c52a3fed4b5fe0c5867ea0c2c7c716e02a7edfdc80ce86b1c24a91ec9c2e9a3360405162000181919062000422565b60405180910390a1620001a16301ffc9a760e01b6200027f60201b60201c565b620001b96380ac58cd60e01b6200027f60201b60201c565b620001d163780e9d6360e01b6200027f60201b60201c565b8260109080519060200190620001e99291906200031f565b508160119080519060200190620002029291906200031f565b5080601290805190602001906200021b9291906200031f565b5062000234635b5e139f60e01b6200027f60201b60201c565b50505080601460006101000a81548173ffffffffffffffffffffffffffffffffffffffff021916908373ffffffffffffffffffffffffffffffffffffffff16021790555050620004c9565b63ffffffff60e01b817bffffffffffffffffffffffffffffffffffffffffffffffffffffffff19161415620002b357600080fd5b6001806000837bffffffffffffffffffffffffffffffffffffffffffffffffffffffff19167bffffffffffffffffffffffffffffffffffffffffffffffffffffffff1916815260200190815260200160002060006101000a81548160ff02191690831515021790555050565b828054600181600116156101000203166002900490600052602060002090601f016020900481019282601f106200036257805160ff191683800117855562000393565b8280016001018555821562000393579182015b828111156200039257825182559160200191906001019062000375565b5b509050620003a29190620003a6565b5090565b620003cb91905b80821115620003c7576000816000905550600101620003ad565b5090565b90565b600081519050620003df81620004af565b92915050565b600060208284031215620003f857600080fd5b60006200040884828501620003ce565b91505092915050565b6200041c8162000473565b82525050565b600060208201905062000439600083018462000411565b92915050565b60006200044c8262000453565b9050919050565b600073ffffffffffffffffffffffffffffffffffffffff82169050919050565b6000620004808262000487565b9050919050565b600062000494826200049b565b9050919050565b6000620004a88262000453565b9050919050565b620004ba816200043f565b8114620004c657600080fd5b50565b61369380620004d96000396000f3fe608060405234801561001057600080fd5b50600436106101585760003560e01c80635d85b30b116100c3578063bdc32be01161007c578063bdc32be0146103bd578063c87b56dd146103db578063d3fc98641461040b578063e985e9c51461043b578063f2aa06831461046b578063f2fde38b1461049b57610158565b80635d85b30b146102ed5780636352211e1461030957806370a08231146103395780639ad46ee814610369578063a22cb46514610385578063b88d4fde146103a157610158565b80632f745c59116101155780632f745c591461022f57806338bbfa501461025f5780633f3108f71461027b57806342842e0e146102855780634f6ccce7146102a15780634f8bd9b6146102d157610158565b806301ffc9a71461015d578063081812fc1461018d578063095ea7b3146101bd57806318160ddd146101d957806323b872dd146101f757806327dc297e14610213575b600080fd5b61017760048036036101729190810190612a62565b6104b7565b60405161018491906131ba565b60405180910390f35b6101a760048036036101a29190810190612b58565b61051f565b6040516101b49190613138565b60405180910390f35b6101d760048036036101d2919081019061280f565b61055c565b005b6101e1610708565b6040516101ee9190613322565b60405180910390f35b610211600480360361020c9190810190612709565b610715565b005b61022d60048036036102289190810190612940565b610738565b005b6102496004803603610244919081019061280f565b61077b565b6040516102569190613322565b60405180910390f35b61027960048036036102749190810190612994565b6107ee565b005b6102836107f3565b005b61029f600480360361029a9190810190612709565b6108a0565b005b6102bb60048036036102b69190810190612b58565b6108c0565b6040516102c89190613322565b60405180910390f35b6102eb60048036036102e69190810190612a13565b6108f4565b005b61030760048036036103029190810190612ab4565b6109a2565b005b610323600480360361031e9190810190612b58565b6109e0565b6040516103309190613138565b60405180910390f35b610353600480360361034e91908101906126a4565b610a1d565b6040516103609190613322565b60405180910390f35b610383600480360361037e91908101906126a4565b610a6d565b005b61039f600480360361039a91908101906127d3565b610ab0565b005b6103bb60048036036103b69190810190612758565b610be6565b005b6103c5610c0c565b6040516103d291906131d5565b60405180910390f35b6103f560048036036103f09190810190612b58565b610cae565b60405161040291906131d5565b60405180910390f35b6104256004803603610420919081019061284b565b610d75565b60405161043291906131ba565b60405180910390f35b610455600480360361045091908101906126cd565b610dee565b60405161046291906131ba565b60405180910390f35b610485600480360361048091908101906128b2565b610e82565b60405161049291906131ba565b60405180910390f35b6104b560048036036104b091908101906126a4565b6110aa565b005b600060016000837bffffffffffffffffffffffffffffffffffffffffffffffffffffffff19167bffffffffffffffffffffffffffffffffffffffffffffffffffffffff1916815260200190815260200160002060009054906101000a900460ff169050919050565b60006003600083815260200190815260200160002060009054906101000a900473ffffffffffffffffffffffffffffffffffffffff169050919050565b6000809054906101000a900473ffffffffffffffffffffffffffffffffffffffff1673ffffffffffffffffffffffffffffffffffffffff163373ffffffffffffffffffffffffffffffffffffffff16146105b557600080fd5b8173ffffffffffffffffffffffffffffffffffffffff166002600083815260200190815260200160002060009054906101000a900473ffffffffffffffffffffffffffffffffffffffff1673ffffffffffffffffffffffffffffffffffffffff161415610657576040517f08c379a000000000000000000000000000000000000000000000000000000000815260040161064e906132b7565b60405180910390fd5b816003600083815260200190815260200160002060006101000a81548173ffffffffffffffffffffffffffffffffffffffff021916908373ffffffffffffffffffffffffffffffffffffffff160217905550808273ffffffffffffffffffffffffffffffffffffffff163373ffffffffffffffffffffffffffffffffffffffff167f8c5be1e5ebec7d5bd14f71427d1e84f3dd0314c0f7b2291e5b200ac8c7c3b92560405160405180910390a45050565b6000600980549050905090565b61071f33826111b4565b61072857600080fd5b610733838383611249565b505050565b610777828260006040519080825280601f01601f1916602001820160405280156107715781602001600182028038833980820191505090505b506107ee565b5050565b600061078683610a1d565b821061079157600080fd5b600760008473ffffffffffffffffffffffffffffffffffffffff1673ffffffffffffffffffffffffffffffffffffffff16815260200190815260200160002082815481106107db57fe5b9060005260206000200154905092915050565b505050565b6000809054906101000a900473ffffffffffffffffffffffffffffffffffffffff1673ffffffffffffffffffffffffffffffffffffffff163373ffffffffffffffffffffffffffffffffffffffff161461084c57600080fd5b6001600060146101000a81548160ff0219169083151502179055507f62e78cea01bee320cd4e420270b5ea74000d11b0c9f74754ebdbfc544b05a258336040516108969190613153565b60405180910390a1565b6108bb83838360405180602001604052806000815250610be6565b505050565b60006108ca610708565b82106108d557600080fd5b600982815481106108e257fe5b90600052602060002001549050919050565b816015600085815260200190815260200160002060000181905550806015600085815260200190815260200160002060010160006101000a81548173ffffffffffffffffffffffffffffffffffffffff021916908373ffffffffffffffffffffffffffffffffffffffff1602179055507f078793128cefb19aac38a33f9e5df39f67716907f6d747e8065545699e0b2b8d828260405161099592919061333d565b60405180910390a1505050565b8585601091906109b39291906121ed565b508383601191906109c59291906121ed565b508181601291906109d79291906121ed565b50505050505050565b60006002600083815260200190815260200160002060009054906101000a900473ffffffffffffffffffffffffffffffffffffffff169050919050565b6000610a66600560008473ffffffffffffffffffffffffffffffffffffffff1673ffffffffffffffffffffffffffffffffffffffff16815260200190815260200160002061126d565b9050919050565b806000806101000a81548173ffffffffffffffffffffffffffffffffffffffff021916908373ffffffffffffffffffffffffffffffffffffffff16021790555050565b3373ffffffffffffffffffffffffffffffffffffffff168273ffffffffffffffffffffffffffffffffffffffff161415610ae957600080fd5b80600660003373ffffffffffffffffffffffffffffffffffffffff1673ffffffffffffffffffffffffffffffffffffffff16815260200190815260200160002060008473ffffffffffffffffffffffffffffffffffffffff1673ffffffffffffffffffffffffffffffffffffffff16815260200190815260200160002060006101000a81548160ff0219169083151502179055508173ffffffffffffffffffffffffffffffffffffffff163373ffffffffffffffffffffffffffffffffffffffff167f17307eab39ab6107e8899845ad3d59bd9653f200f220920489ca2b5937696c3183604051610bda91906131ba565b60405180910390a35050565b610bf1848484610715565b610bfd8484848461127b565b610c0657600080fd5b50505050565b606060128054600181600116156101000203166002900480601f016020809104026020016040519081016040528092919081815260200182805460018160011615610100020316600290048015610ca45780601f10610c7957610100808354040283529160200191610ca4565b820191906000526020600020905b815481529060010190602001808311610c8757829003601f168201915b5050505050905090565b6060610cb982611392565b610cc257600080fd5b601360008381526020019081526020016000208054600181600116156101000203166002900480601f016020809104026020016040519081016040528092919081815260200182805460018160011615610100020316600290048015610d695780601f10610d3e57610100808354040283529160200191610d69565b820191906000526020600020905b815481529060010190602001808311610d4c57829003601f168201915b50505050509050919050565b60008060009054906101000a900473ffffffffffffffffffffffffffffffffffffffff1673ffffffffffffffffffffffffffffffffffffffff163373ffffffffffffffffffffffffffffffffffffffff1614610dd057600080fd5b610dda8484611404565b610de383611425565b600190509392505050565b6000600660008473ffffffffffffffffffffffffffffffffffffffff1673ffffffffffffffffffffffffffffffffffffffff16815260200190815260200160002060008373ffffffffffffffffffffffffffffffffffffffff1673ffffffffffffffffffffffffffffffffffffffff16815260200190815260200160002060009054906101000a900460ff16905092915050565b6000601460009054906101000a900473ffffffffffffffffffffffffffffffffffffffff1673ffffffffffffffffffffffffffffffffffffffff166343cd76fc84846040518363ffffffff1660e01b8152600401610ee19291906132f7565b60206040518083038186803b158015610ef957600080fd5b505afa158015610f0d573d6000803e3d6000fd5b505050506040513d601f19601f82011682018060405250610f319190810190612917565b610f70576040517f08c379a0000000000000000000000000000000000000000000000000000000008152600401610f6790613237565b60405180910390fd5b600083600001516000015184600001516020015185602001516000015186602001516020015187604001516000015188604001516020015188604051602001610fbf97969594939291906130b7565b604051602081830303815290604052805190602001209050600073ffffffffffffffffffffffffffffffffffffffff166015600083815260200190815260200160002060010160009054906101000a900473ffffffffffffffffffffffffffffffffffffffff1673ffffffffffffffffffffffffffffffffffffffff161461107c576040517f08c379a0000000000000000000000000000000000000000000000000000000008152600401611073906132d7565b60405180910390fd5b6110878186886108f4565b6060611091610c0c565b905061109e878783610d75565b92505050949350505050565b6000809054906101000a900473ffffffffffffffffffffffffffffffffffffffff1673ffffffffffffffffffffffffffffffffffffffff163373ffffffffffffffffffffffffffffffffffffffff161461110357600080fd5b8073ffffffffffffffffffffffffffffffffffffffff168173ffffffffffffffffffffffffffffffffffffffff1614611171576040517f08c379a000000000000000000000000000000000000000000000000000000000815260040161116890613217565b60405180910390fd5b806000806101000a81548173ffffffffffffffffffffffffffffffffffffffff021916908373ffffffffffffffffffffffffffffffffffffffff16021790555050565b6000806111c0836109e0565b90508073ffffffffffffffffffffffffffffffffffffffff168473ffffffffffffffffffffffffffffffffffffffff16148061122f57508373ffffffffffffffffffffffffffffffffffffffff166112178461051f565b73ffffffffffffffffffffffffffffffffffffffff16145b80611240575061123f8185610dee565b5b91505092915050565b611254838383611543565b61125e8382611770565b611268828261190e565b505050565b600081600001549050919050565b600061129c8473ffffffffffffffffffffffffffffffffffffffff166119d5565b6112a9576001905061138a565b60008473ffffffffffffffffffffffffffffffffffffffff1663150b7a02338887876040518563ffffffff1660e01b81526004016112ea949392919061316e565b602060405180830381600087803b15801561130457600080fd5b505af1158015611318573d6000803e3d6000fd5b505050506040513d601f19601f8201168201806040525061133c9190810190612a8b565b905063150b7a0260e01b7bffffffffffffffffffffffffffffffffffffffffffffffffffffffff1916817bffffffffffffffffffffffffffffffffffffffffffffffffffffffff1916149150505b949350505050565b6000806002600084815260200190815260200160002060009054906101000a900473ffffffffffffffffffffffffffffffffffffffff169050600073ffffffffffffffffffffffffffffffffffffffff168173ffffffffffffffffffffffffffffffffffffffff161415915050919050565b61140e8282611a20565b611418828261190e565b61142181611bd2565b5050565b61142e81611392565b61146d576040517f08c379a000000000000000000000000000000000000000000000000000000000815260040161146490613297565b60405180910390fd5b61151960128054600181600116156101000203166002900480601f0160208091040260200160405190810160405280929190818152602001828054600181600116156101000203166002900480156115065780601f106114db57610100808354040283529160200191611506565b820191906000526020600020905b8154815290600101906020018083116114e957829003601f168201915b505050505061151483611c1e565b611d4b565b60136000838152602001908152602001600020908051906020019061153f92919061226d565b5050565b8273ffffffffffffffffffffffffffffffffffffffff16611563826109e0565b73ffffffffffffffffffffffffffffffffffffffff16146115b9576040517f08c379a00000000000000000000000000000000000000000000000000000000081526004016115b090613257565b60405180910390fd5b8173ffffffffffffffffffffffffffffffffffffffff168273ffffffffffffffffffffffffffffffffffffffff1614611627576040517f08c379a000000000000000000000000000000000000000000000000000000000815260040161161e90613217565b60405180910390fd5b61163081611d8f565b611677600560008573ffffffffffffffffffffffffffffffffffffffff1673ffffffffffffffffffffffffffffffffffffffff168152602001908152602001600020611e4d565b6116be600560008473ffffffffffffffffffffffffffffffffffffffff1673ffffffffffffffffffffffffffffffffffffffff168152602001908152602001600020611e70565b816002600083815260200190815260200160002060006101000a81548173ffffffffffffffffffffffffffffffffffffffff021916908373ffffffffffffffffffffffffffffffffffffffff160217905550808273ffffffffffffffffffffffffffffffffffffffff168473ffffffffffffffffffffffffffffffffffffffff167fddf252ad1be2c89b69c2b068fc378daa952ba7f163c4a11628f55a4df523b3ef60405160405180910390a4505050565b60006117c86001600760008673ffffffffffffffffffffffffffffffffffffffff1673ffffffffffffffffffffffffffffffffffffffff16815260200190815260200160002080549050611e8690919063ffffffff16565b90506000600860008481526020019081526020016000205490508181146118b5576000600760008673ffffffffffffffffffffffffffffffffffffffff1673ffffffffffffffffffffffffffffffffffffffff168152602001908152602001600020838154811061183557fe5b9060005260206000200154905080600760008773ffffffffffffffffffffffffffffffffffffffff1673ffffffffffffffffffffffffffffffffffffffff168152602001908152602001600020838154811061188d57fe5b9060005260206000200181905550816008600083815260200190815260200160002081905550505b600760008573ffffffffffffffffffffffffffffffffffffffff1673ffffffffffffffffffffffffffffffffffffffff16815260200190815260200160002080548091906001900361190791906122ed565b5050505050565b600760008373ffffffffffffffffffffffffffffffffffffffff1673ffffffffffffffffffffffffffffffffffffffff168152602001908152602001600020805490506008600083815260200190815260200160002081905550600760008373ffffffffffffffffffffffffffffffffffffffff1673ffffffffffffffffffffffffffffffffffffffff1681526020019081526020016000208190806001815401808255809150509060018203906000526020600020016000909192909190915055505050565b60008060007fc5d2460186f7233c927e7db2dcc703c0e500b653ca82273b7bfad8045d85a47060001b9050833f9150808214158015611a1757506000801b8214155b92505050919050565b611a2981611392565b15611a69576040517f08c379a0000000000000000000000000000000000000000000000000000000008152600401611a6090613277565b60405180910390fd5b600073ffffffffffffffffffffffffffffffffffffffff168273ffffffffffffffffffffffffffffffffffffffff161415611ad9576040517f08c379a0000000000000000000000000000000000000000000000000000000008152600401611ad0906131f7565b60405180910390fd5b816002600083815260200190815260200160002060006101000a81548173ffffffffffffffffffffffffffffffffffffffff021916908373ffffffffffffffffffffffffffffffffffffffff160217905550611b72600560008473ffffffffffffffffffffffffffffffffffffffff1673ffffffffffffffffffffffffffffffffffffffff168152602001908152602001600020611e70565b808273ffffffffffffffffffffffffffffffffffffffff16600073ffffffffffffffffffffffffffffffffffffffff167fddf252ad1be2c89b69c2b068fc378daa952ba7f163c4a11628f55a4df523b3ef60405160405180910390a45050565b600980549050600a600083815260200190815260200160002081905550600981908060018154018082558091505090600182039060005260206000200160009091929091909150555050565b60606000821415611c66576040518060400160405280600181526020017f30000000000000000000000000000000000000000000000000000000000000008152509050611d46565b600082905060005b60008214611c90578080600101915050600a8281611c8857fe5b049150611c6e565b6060816040519080825280601f01601f191660200182016040528015611cc55781602001600182028038833980820191505090505b50905060006001830390505b60008614611d3e57600a8681611ce357fe5b0660300160f81b82828060019003935081518110611cfd57fe5b60200101907effffffffffffffffffffffffffffffffffffffffffffffffffffffffffffff1916908160001a905350600a8681611d3657fe5b049550611cd1565b819450505050505b919050565b6060611d878383604051806020016040528060008152506040518060200160405280600081525060405180602001604052806000815250611ed0565b905092915050565b600073ffffffffffffffffffffffffffffffffffffffff166003600083815260200190815260200160002060009054906101000a900473ffffffffffffffffffffffffffffffffffffffff1673ffffffffffffffffffffffffffffffffffffffff1614611e4a5760006003600083815260200190815260200160002060006101000a81548173ffffffffffffffffffffffffffffffffffffffff021916908373ffffffffffffffffffffffffffffffffffffffff1602179055505b50565b611e6560018260000154611e8690919063ffffffff16565b816000018190555050565b6001816000016000828254019250508190555050565b6000611ec883836040518060400160405280601e81526020017f536166654d6174683a207375627472616374696f6e206f766572666c6f770000815250612192565b905092915050565b6060808690506060869050606086905060608690506060869050606081518351855187518951010101016040519080825280601f01601f191660200182016040528015611f2c5781602001600182028038833980820191505090505b509050606081905060008090506000809050600090505b8851811015611fb157888181518110611f5857fe5b602001015160f81c60f81b838380600101945081518110611f7557fe5b60200101907effffffffffffffffffffffffffffffffffffffffffffffffffffffffffffff1916908160001a9053508080600101915050611f43565b600090505b875181101561202457878181518110611fcb57fe5b602001015160f81c60f81b838380600101945081518110611fe857fe5b60200101907effffffffffffffffffffffffffffffffffffffffffffffffffffffffffffff1916908160001a9053508080600101915050611fb6565b600090505b86518110156120975786818151811061203e57fe5b602001015160f81c60f81b83838060010194508151811061205b57fe5b60200101907effffffffffffffffffffffffffffffffffffffffffffffffffffffffffffff1916908160001a9053508080600101915050612029565b600090505b855181101561210a578581815181106120b157fe5b602001015160f81c60f81b8383806001019450815181106120ce57fe5b60200101907effffffffffffffffffffffffffffffffffffffffffffffffffffffffffffff1916908160001a905350808060010191505061209c565b600090505b845181101561217d5784818151811061212457fe5b602001015160f81c60f81b83838060010194508151811061214157fe5b60200101907effffffffffffffffffffffffffffffffffffffffffffffffffffffffffffff1916908160001a905350808060010191505061210f565b82995050505050505050505095945050505050565b60008383111582906121da576040517f08c379a00000000000000000000000000000000000000000000000000000000081526004016121d191906131d5565b60405180910390fd5b5060008385039050809150509392505050565b828054600181600116156101000203166002900490600052602060002090601f016020900481019282601f1061222e57803560ff191683800117855561225c565b8280016001018555821561225c579182015b8281111561225b578235825591602001919060010190612240565b5b5090506122699190612319565b5090565b828054600181600116156101000203166002900490600052602060002090601f016020900481019282601f106122ae57805160ff19168380011785556122dc565b828001600101855582156122dc579182015b828111156122db5782518255916020019190600101906122c0565b5b5090506122e99190612319565b5090565b815481835581811115612314578183600052602060002091820191016123139190612319565b5b505050565b61233b91905b8082111561233757600081600090555060010161231f565b5090565b90565b60008135905061234d816135dd565b92915050565b600082601f83011261236457600080fd5b600261237761237282613393565b613366565b9150818385602084028201111561238d57600080fd5b60005b838110156123bd57816123a3888261268f565b845260208401935060208301925050600181019050612390565b5050505092915050565b600082601f8301126123d857600080fd5b60026123eb6123e6826133b5565b613366565b9150818385602084028201111561240157600080fd5b60005b838110156124315781612417888261268f565b845260208401935060208301925050600181019050612404565b5050505092915050565b60008135905061244a816135f4565b92915050565b60008151905061245f816135f4565b92915050565b6000813590506124748161360b565b92915050565b60008135905061248981613622565b92915050565b60008151905061249e81613622565b92915050565b600082601f8301126124b557600080fd5b81356124c86124c3826133d7565b613366565b915080825260208301602083018583830111156124e457600080fd5b6124ef838284613580565b50505092915050565b60008083601f84011261250a57600080fd5b8235905067ffffffffffffffff81111561252357600080fd5b60208301915083600182028301111561253b57600080fd5b9250929050565b600082601f83011261255357600080fd5b813561256661256182613403565b613366565b9150808252602083016020830185838301111561258257600080fd5b61258d838284613580565b50505092915050565b6000604082840312156125a857600080fd5b6125b26040613366565b905060006125c28482850161268f565b60008301525060206125d68482850161268f565b60208301525092915050565b6000608082840312156125f457600080fd5b6125fe6040613366565b9050600061260e84828501612353565b600083015250604061262284828501612353565b60208301525092915050565b6000610100828403121561264157600080fd5b61264b6060613366565b9050600061265b84828501612596565b600083015250604061266f848285016125e2565b60208301525060c061268384828501612596565b60408301525092915050565b60008135905061269e81613639565b92915050565b6000602082840312156126b657600080fd5b60006126c48482850161233e565b91505092915050565b600080604083850312156126e057600080fd5b60006126ee8582860161233e565b92505060206126ff8582860161233e565b9150509250929050565b60008060006060848603121561271e57600080fd5b600061272c8682870161233e565b935050602061273d8682870161233e565b925050604061274e8682870161268f565b9150509250925092565b6000806000806080858703121561276e57600080fd5b600061277c8782880161233e565b945050602061278d8782880161233e565b935050604061279e8782880161268f565b925050606085013567ffffffffffffffff8111156127bb57600080fd5b6127c7878288016124a4565b91505092959194509250565b600080604083850312156127e657600080fd5b60006127f48582860161233e565b92505060206128058582860161243b565b9150509250929050565b6000806040838503121561282257600080fd5b60006128308582860161233e565b92505060206128418582860161268f565b9150509250929050565b60008060006060848603121561286057600080fd5b600061286e8682870161233e565b935050602061287f8682870161268f565b925050604084013567ffffffffffffffff81111561289c57600080fd5b6128a886828701612542565b9150509250925092565b60008060008061018085870312156128c957600080fd5b60006128d78782880161233e565b94505060206128e88782880161268f565b93505060406128f98782880161262e565b92505061014061290b878288016123c7565b91505092959194509250565b60006020828403121561292957600080fd5b600061293784828501612450565b91505092915050565b6000806040838503121561295357600080fd5b600061296185828601612465565b925050602083013567ffffffffffffffff81111561297e57600080fd5b61298a85828601612542565b9150509250929050565b6000806000606084860312156129a957600080fd5b60006129b786828701612465565b935050602084013567ffffffffffffffff8111156129d457600080fd5b6129e086828701612542565b925050604084013567ffffffffffffffff8111156129fd57600080fd5b612a09868287016124a4565b9150509250925092565b600080600060608486031215612a2857600080fd5b6000612a3686828701612465565b9350506020612a478682870161268f565b9250506040612a588682870161233e565b9150509250925092565b600060208284031215612a7457600080fd5b6000612a828482850161247a565b91505092915050565b600060208284031215612a9d57600080fd5b6000612aab8482850161248f565b91505092915050565b60008060008060008060608789031215612acd57600080fd5b600087013567ffffffffffffffff811115612ae757600080fd5b612af389828a016124f8565b9650965050602087013567ffffffffffffffff811115612b1257600080fd5b612b1e89828a016124f8565b9450945050604087013567ffffffffffffffff811115612b3d57600080fd5b612b4989828a016124f8565b92509250509295509295509295565b600060208284031215612b6a57600080fd5b6000612b788482850161268f565b91505092915050565b6000612b8d8383613073565b60208301905092915050565b6000612ba58383613091565b60208301905092915050565b612bba8161354a565b82525050565b612bc9816134cc565b82525050565b612bd88161344e565b612be28184613494565b9250612bed82613439565b8060005b83811015612c1e578151612c058782612b81565b9650612c108361347c565b925050600181019050612bf1565b505050505050565b612c2f8161344e565b612c39818461349f565b9250612c4482613439565b8060005b83811015612c75578151612c5c8782612b99565b9650612c678361347c565b925050600181019050612c48565b505050505050565b612c8681613443565b612c908184613489565b9250612c9b8261342f565b8060005b83811015612ccc578151612cb38782612b81565b9650612cbe8361346f565b925050600181019050612c9f565b505050505050565b612cdd81613443565b612ce7818461349f565b9250612cf28261342f565b8060005b83811015612d23578151612d0a8782612b99565b9650612d158361346f565b925050600181019050612cf6565b505050505050565b612d34816134de565b82525050565b6000612d4582613459565b612d4f81856134aa565b9350612d5f81856020860161358f565b612d68816135cc565b840191505092915050565b6000612d7e82613464565b612d8881856134bb565b9350612d9881856020860161358f565b612da1816135cc565b840191505092915050565b6000612db96014836134bb565b91507f41646472657373206973206e6f742076616c69640000000000000000000000006000830152602082019050919050565b6000612df9600f836134bb565b91507f496e76616c6964206164647265737300000000000000000000000000000000006000830152602082019050919050565b6000612e396011836134bb565b91507f4e6f7420612076616c69642070726f6f660000000000000000000000000000006000830152602082019050919050565b6000612e79601a836134bb565b91507f4e6f742061206f776e6572206f6620676976656e20746f6b656e0000000000006000830152602082019050919050565b6000612eb96014836134bb565b91507f546f6b656e20616c7265616479206578697374730000000000000000000000006000830152602082019050919050565b6000612ef96014836134bb565b91507f546f6b656e20646f6573206e6f742065786973740000000000000000000000006000830152602082019050919050565b6000612f396030836134bb565b91507f4a75737420612067656e746c652072656d696e64657220796f7520617265206160008301527f6c726561647920746865206f776e6572000000000000000000000000000000006020830152604082019050919050565b6000612f9f6017836134bb565b91507f536f6c7574696f6e20616c7265616479206578697374730000000000000000006000830152602082019050919050565b604082016000820151612fe86000850182613073565b506020820151612ffb6020850182613073565b50505050565b6080820160008201516130176000850182612c7d565b50602082015161302a6040850182612c7d565b50505050565b610100820160008201516130476000850182612fd2565b50602082015161305a6040850182613001565b50604082015161306d60c0850182612fd2565b50505050565b61307c81613540565b82525050565b61308b81613540565b82525050565b61309a81613540565b82525050565b6130b16130ac82613540565b6135c2565b82525050565b60006130c3828a6130a0565b6020820191506130d382896130a0565b6020820191506130e38288612cd4565b6040820191506130f38287612cd4565b60408201915061310382866130a0565b60208201915061311382856130a0565b6020820191506131238284612c26565b60408201915081905098975050505050505050565b600060208201905061314d6000830184612bc0565b92915050565b60006020820190506131686000830184612bb1565b92915050565b60006080820190506131836000830187612bb1565b6131906020830186612bc0565b61319d6040830185613082565b81810360608301526131af8184612d3a565b905095945050505050565b60006020820190506131cf6000830184612d2b565b92915050565b600060208201905081810360008301526131ef8184612d73565b905092915050565b6000602082019050818103600083015261321081612dac565b9050919050565b6000602082019050818103600083015261323081612dec565b9050919050565b6000602082019050818103600083015261325081612e2c565b9050919050565b6000602082019050818103600083015261327081612e6c565b9050919050565b6000602082019050818103600083015261329081612eac565b9050919050565b600060208201905081810360008301526132b081612eec565b9050919050565b600060208201905081810360008301526132d081612f2c565b9050919050565b600060208201905081810360008301526132f081612f92565b9050919050565b60006101408201905061330d6000830185613030565b61331b610100830184612bcf565b9392505050565b60006020820190506133376000830184613082565b92915050565b60006040820190506133526000830185613082565b61335f6020830184612bc0565b9392505050565b6000604051905081810181811067ffffffffffffffff8211171561338957600080fd5b8060405250919050565b600067ffffffffffffffff8211156133aa57600080fd5b602082029050919050565b600067ffffffffffffffff8211156133cc57600080fd5b602082029050919050565b600067ffffffffffffffff8211156133ee57600080fd5b601f19601f8301169050602081019050919050565b600067ffffffffffffffff82111561341a57600080fd5b601f19601f8301169050602081019050919050565b6000819050919050565b6000819050919050565b600060029050919050565b600060029050919050565b600081519050919050565b600081519050919050565b6000602082019050919050565b6000602082019050919050565b600081905092915050565b600081905092915050565b600081905092915050565b600082825260208201905092915050565b600082825260208201905092915050565b60006134d782613520565b9050919050565b60008115159050919050565b6000819050919050565b60007fffffffff0000000000000000000000000000000000000000000000000000000082169050919050565b600073ffffffffffffffffffffffffffffffffffffffff82169050919050565b6000819050919050565b60006135558261355c565b9050919050565b60006135678261356e565b9050919050565b600061357982613520565b9050919050565b82818337600083830152505050565b60005b838110156135ad578082015181840152602081019050613592565b838111156135bc576000848401525b50505050565b6000819050919050565b6000601f19601f8301169050919050565b6135e6816134cc565b81146135f157600080fd5b50565b6135fd816134de565b811461360857600080fd5b50565b613614816134ea565b811461361f57600080fd5b50565b61362b816134f4565b811461363657600080fd5b50565b61364281613540565b811461364d57600080fd5b5056fea365627a7a72315820a78a3f3bcf1009e9f0ce290565b82009a97c8a2abe4ab455bbad19e96198fe856c6578706572696d656e74616cf564736f6c6343000510004068747470733a2f2f73332d75732d776573742d322e616d617a6f6e6177732e636f6d2f756461636974792d626c6f636b636861696e2f63617073746f6e652f",
  "source": "pragma solidity >=0.4.21 <0.6.0;\npragma experimental ABIEncoderV2;\n// TODO define a contract call to the zokrates generated solidity contract <Verifier> or <renamedVerifier>\n\nimport \"./ERC721Mintable.sol\";\nimport \"./verifier.sol\";\n\n// TODO define another contract named SolnSquareVerifier that inherits from your ERC721Mintable class\n\ncontract SolnSquareVerifier is CustomERC721Token{\n    Verifier v;\n// TODO define a solutions struct that can hold an index & an address\n    constructor(address owner) public {\n        v = Verifier(owner);\n    }\nstruct solution\n{\n    uint256 id;\n    address ad;\n}\n\n// TODO define an array of the above struct\nmapping(bytes32=>solution) Solutions;\n\n// TODO define a mapping to store unique solutions submitted\nmapping(uint256=>bytes32) submittedsolution;\n\n\n// TODO Create an event to emit when a solution is added\nevent SolutionAdded(uint256 index,address account);\n\n\n// TODO Create a function to add the solutions to the array and emit the event\nfunction addSolution(bytes32 token,uint256 _id,address _ad) public{\n    Solutions[token].id=_id;\n    Solutions[token].ad=_ad;\n    emit SolutionAdded(_id,_ad);\n}\n\n//Hey\n// TODO Create a function to mint new NFT only after the solution has been verified\n//  - make sure the solution is unique (has not been used before)\n//  - make sure you handle metadata as well as tokenSuplly\n    function mintToken(address account, uint256 index, Verifier.Proof memory proof, uint[2] memory input) public returns(bool) {\n    \n        require(v.verifyTx(proof,input),\"Not a valid proof\");\n          bytes32 key = keccak256(abi.encodePacked(proof.a.X, proof.a.Y, proof.b.X, proof.b.Y, proof.c.X, proof.c.Y, input));\n\n                require(Solutions[key].ad == address(0x0), \"Solution already exists\");\n\n                addSolution(key, index, account);\n\n                string memory baseTokenUri = super.getBaseTokenURI();\n\n                return super.mint(account, index, baseTokenUri);\n\n        \n    }\n}\n  \n\n\n\n\n\n\n\n\n\n\n\n\n\n\n\n\n\n\n\n\n\n\n\n\n\n\n",
  "sourcePath": "G:/Udacity_blockchain/Blockchain-Capstone-master/Blockchain-Capstone-master/eth-contracts/contracts/SolnSquareVerifier.sol",
  "compiler": {
    "name": "solc",
    "version": "0.5.16+commit.9c3226ce.Emscripten.clang"
  },
  "schemaVersion": "3.3.4",
  "updatedAt": "2022-07-16T19:50:07.843Z",
  "networkType": "ethereum",
  "devdoc": {
    "methods": {
      "isApprovedForAll(address,address)": {
        "details": "Tells whether an operator is approved by a given owner",
        "params": {
          "operator": "operator address which you want to query the approval of",
          "owner": "owner address which you want to query the approval of"
        },
        "return": "bool whether the given operator is approved by the given owner"
      },
      "setApprovalForAll(address,bool)": {
        "details": "Sets or unsets the approval of a given operator An operator is allowed to transfer all tokens of the sender on their behalf",
        "params": {
          "approved": "representing the status of the approval to be set",
          "to": "operator address to set the approval"
        }
      },
      "supportsInterface(bytes4)": {
        "details": "implement supportsInterface(bytes4) using a lookup table"
      },
      "tokenByIndex(uint256)": {
        "details": "Gets the token ID at a given index of all the tokens in this contract Reverts if the index is greater or equal to the total number of tokens",
        "params": {
          "index": "uint256 representing the index to be accessed of the tokens list"
        },
        "return": "uint256 token ID at the given index of the tokens list"
      },
      "tokenOfOwnerByIndex(address,uint256)": {
        "details": "Gets the token ID at a given index of the tokens list of the requested owner",
        "params": {
          "index": "uint256 representing the index to be accessed of the requested tokens list",
          "owner": "address owning the tokens list to be accessed"
        },
        "return": "uint256 token ID at the given index of the tokens list owned by the requested address"
      },
      "totalSupply()": {
        "details": "Gets the total amount of tokens stored by the contract",
        "return": "uint256 representing the total amount of tokens"
      }
    }
  },
  "userdoc": {
    "methods": {}
  }
}